S01700004763634170706C69636174696F6E362E7372656356
S11300000C9434000C9449000C9449000C9449005D
S11300100C9449000C9449000C9449000C94490038
S11300200C9449000C9449000C9449000C94490028
S11300300C9449000C9449000C9449000C94490018
S11300400C9449000C9449000C9449000C94490008
S11300500C9449000C9449000C9449000C944900F8
S11300600C9449000C94490011241FBECFEFD8E032
S1130070DEBFCDBF11E0A0E0B1E0E4E8F2E002C0F1
S113008005900D92AC30B107D9F70E948E000C9404
S113009040010C940000E0ECF0E0808182608083F9
S11300A01092C5008FEC8093C400E2ECF0E08081F4
S11300B086608083E1ECF0E08081806180838081D0
S11300C08860808308958091C0008823E4F780913C
S11300D0C60008959091C00095FFFCCF8093C600A0
S11300E00895E0E8F0E0808182608083A1E8B0E0D8
S11300F08C9188618C938C9182608C9380818068D0
S1130100808380818062808380E49CE9909387006F
S1130110809386008FEF84B915B80895CF93DF9349
S1130120CDB7DEB764970FB6F894DEBF0FBECDBF70
S11301301A821982FE01339682E1DF011D928A95AB
S1130140E9F70E944B000E9471000E946300182F7F
S1130150898360E071E0CE0101960E943701892B0A
S113016071F480EB94E090938900809388009093DD
S11301708B0080938A00812F0E946A00E6CF62E0A0
S113018071E0CE0101960E943701892B71F484E35A
S113019098E0909389008093880090938B008093DB
S11301A08A00812F0E946A00D0CF64E071E0CE0102
S11301B001960E943701892B71F48EE49CE09093A0
S11301C089008093880090938B0080938A00812F0C
S11301D00E946A00BACF66E071E0CE0101960E94E7
S11301E03701892B71F480EA9FE090938900809312
S11301F0880090938B0080938A00812F0E946A006C
S1130200A4CF68E071E0CE0101960E943701892BEA
S113021071F488E893E19093890080938800909327
S11302208B0080938A00812F0E946A008ECF6AE03F
S113023071E0CE0101960E943701892BA1F4812F30
S11302400E946A008CE090E090938B0080938A0077
S1130250BFEF23EC89E0B15020408040E1F700C0BB
S1130260000015B872CF812F0E946A006ECFFB0187
S1130270DC018D91019080190110D9F3990B089537
S1070280F894FFCF1C
S10F0284710077006500720074007300C4
S9030000FC
