S01700004763634170706C69636174696F6E382E7372656354
S11300000C9434000C943E000C943E000C943E007E
S11300100C943E000C943E000C943E000C943E0064
S11300200C943E000C943E000C943E000C943E0054
S11300300C943E000C943E000C943E000C943E0044
S11300400C943E000C943E000C943E000C943E0034
S11300500C943E000C943E000C943E000C943E0024
S11300600C943E000C943E0011241FBECFEFD8E048
S1130070DEBFCDBF0E9466000C946D000C9400009E
S11300801092C5008FEC8093C400E0ECF0E0808116
S113009082608083E2ECF0E0808186608083E1EC22
S11300A0F0E080818061808380818860808308950E
S11300B09091C00095FFFCCF8093C6000895809175
S11300C0C0008823E4F78091C60008950E94400090
S11100D00E945F000E945800FBCFF894FFCFFF
S9030000FC
